:100000000C9434000C943E000C943E000C943E0082
:100010000C943E000C943E000C943E000C943E0068
:100020000C943E000C943E000C943E000C943E0058
:100030000C943E000C943E000C943E000C943E0048
:100040000C943E000C943E000C943E000C943E0038
:100050000C943E000C943E000C943E000C943E0028
:100060000C943E000C943E0011241FBECFEFD8E04C
:10007000DEBFCDBF0E9440000C9453000C940000E2
:10008000209A91E0289AE7EAF1E63197F1F700C06B
:10009000000085B1892785B9E7EAF1E63197F1F7E4
:0A00A00000C00000EFCFF894FFCF7E
:00000001FF
